:020000040800F2
:100000002014002001350008790400087B04000852
:100010007F04000883040008870400080000000033
:100020000000000000000000000000008B04000839
:100030008D040008000000008F04000891040008EF
:100040001B3500081B3500081B3500081B35000850
:100050001B3500081B3500081B3500081B35000840
:100060001B3500081B3500081B3500081B35000830
:100070001B3500081B3500081B3500081B35000820
:100080001B3500081B3500081B3500081B35000810
:100090001B3500081B3500081B3500081B35000800
:1000A0001B3500081B3500081B3500081B350008F0
:1000B000030F0008430F0008890F00081B350008D4
:1000C0001B3500081B3500081B3500081B350008D0
:1000D0001B350008773400083B2400081B35000856
:1000E0001B3500081B3500081B3500081B350008B0
:1000F0001B3500081B3500081B3500081B350008A0
:100100001B3500081B3500081B3500081B3500088F
:100110001B3500081B3500081B3500081B3500087F
:100120001B3500081B3500081B3500081B3500086F
:100130001B3500081B3500081B3500081B3500085F
:100140001B3500081B3500081B3500081B3500084F
:100150001B3500081B3500081B3500081B3500083F
:100160001B3500081B3500081B3500081B3500082F
:100170001B3500081B3500081B3500081B3500081F
:100180001B3500081B350008DFF810D005F012FD04
:1001900000480047A1010008AFF3008020140020B0
:1001A0002DED048B82B04FF4A06003F0BBF9A820C2
:1001B00003F080F84FF4E13003F00BF9642003F012
:1001C000DBF84FF4E13002F08BF902F055FD00F05E
:1001D00089FF01F0C5F901F0EFFB01F0F3F8C82049
:1001E00003F0CAF802F078FEC82003F0C5F801F069
:1001F0008BFB642003F0C0F801F061FD322003F0B6
:10020000BBF801F039FD8146494677A005F046FD6F
:10021000322003F0B1F800BFE4E07848006808B984
:10022000012000E000207549086001F095F94420A4
:1002300002F0B1FF01F09BFB4FF4FA7003F09CF861
:1002400002F03EF8B0EE408AF0EE608A51EC180BF6
:1002500005F020FB0446204605F0F0FA41EC190BAE
:100260009FED670B53EC102B05F0CAF941EC180B0E
:1002700005F010FB644908604FF4FA7003F07CF855
:100280004FF48051614803F0D7FC05464FF400510C
:100290005E4803F0D1FC06464FF480415B4803F012
:1002A000CBFC07464FF40041584803F0C5FC80469C
:1002B000574858A10268584805F000FD574855A115
:1002C0000268574805F0FAFC5648006805F0B6FA8F
:1002D00041EC180B53EC182B53A1554805F0EEFCDC
:1002E0004948006805F0AAFA41EC180B53EC182BAA
:1002F0004DA1504805F0E2FC4F48006805F09EFA19
:1003000041EC180B53EC182B4CA14E4805F0D6FCD1
:100310004D48006805F092FA41EC180B53EC182B8D
:1003200046A14A4805F0CAFC2A463AA1484805F0C9
:10033000C5FC324637A1474805F0C0FC3A4635A116
:10034000454805F0BBFC424632A1444805F0B6FCE6
:10035000424841493F4B3E4ACDE90010404941489F
:1003600005F0ACFC4FF42F7300223FA13D4802F092
:100370008FF93A483849374B354ACDE900103B49A7
:10038000384805F09BFC4FF42F73002236A1354806
:1003900002F07EF92648274B2A4A35490090314819
:1003A00005F08CFC4FF42F7300222FA12D4802F092
:1003B0006FF91B48184B254A2E490090294805F033
:1003C0007DFC4FF42F73002227A1264802F060F92C
:1003D0004FF4FA7002F0D0FF00F052FC4FF4FA70C4
:1003E00002F0CAFF19E700000D0A424D50323830C2
:1003F0002049443A3078256400000000A0024042C1
:10040000FCA9F1D24D62503F28000020000C0240B0
:100410007000002025640000A80000207400002067
:10042000BC00002080000020252E35660000000062
:10043000D0000020E400002084000020252E31663A
:10044000000000000C0100206C00002020010020B2
:10045000340100203E01002048010020520100200C
:10046000C86700085C0100204F4B0000A46800082A
:10047000F866000828660008704700BFFEE700BF66
:10048000FEE700BFFEE700BFFEE77047704770471A
:10049000704700000CB5002001900090764800687D
:1004A00040F480307449086000BF7348006800F46D
:1004B000003000900198401C0190009818B90198F4
:1004C000B0F5A04FF1D16C48006800F4003010B1D5
:1004D0000120009001E0002000900098012846D102
:1004E00065484030006840F0805063494031086002
:1004F0006248006840F44040604908605E48083047
:1005000000685D49083108600846006840F4004012
:1005100008600846006840F4A05008605848091F69
:100520000860081F006840F08070091F086000BF65
:100530005148006800F000700028F9D040F20570C2
:10054000504908604C480830006820F003004A49D0
:10055000083108600846006840F00200086000BFEB
:1005600045480830006800F00C000828F8D10CBDA0
:1005700010B54548006840F47000434908603E48A3
:10058000006840F001003C49086000203A49083109
:100590000860394800683D490840374908603C48D0
:1005A000091D0860081F006820F48020091F0860EA
:1005B000002031490C310860FFF76CFF4FF00060FC
:1005C00031498039086010BD70B500200022022337
:1005D00000240221284D08352D6805F00C0020B1BB
:1005E000042806D0082834D107E02A4D2A4E356069
:1005F00033E02A4D284E35602FE01F4D2D1D2D680C
:10060000C5F380541C4D2D1D2D6805F03F0154B1DC
:10061000224DB5FBF1F5184E361D3668C6F3881627
:1006200005FB06F209E01B4DB5FBF1F5124E361D38
:100630003668C6F3881605FB06F20F4D2D1D2D6892
:10064000C5F301456D1C6B00B2FBF3F5124E35602E
:1006500003E0104D104E356000BF00BF064D083559
:100660002D68C5F303150E4E705D0B4D2D68C5400A
:10067000094E356070BD0000003802400070004037
:1006800008544007003C024088ED00E0FFFFF6FE02
:10069000103000240024F4000000002000127A0032
:1006A0000400002070B505460024FAA1284604F095
:1006B000E1FEFB4908600846006820B1F9A005F09A
:1006C000EDFA01F0FFFEFAA1284604F0D3FEFA4944
:1006D00008600846006820B1F2A005F0DFFA01F0DA
:1006E000F1FEF6A1284604F0C5FEF549086008466B
:1006F000006820B1EBA005F0D1FA01F0E3FEF1A112
:10070000284604F0B7FEF349086008460068002850
:100710007AD0F1A1284604F0ADFEEE490860084603
:100720000068B0B1002411E0601DEA490968085C66
:10073000EB4908550846005D2C2805D100200855D6
:10074000E8A005F0ABFA03E0601CC4B2142CEBDBAC
:1007500000BFE6A1284604F08DFEDE490860084689
:100760000068B0B1002411E0601DDA490968085C36
:10077000E04908550846005D2C2805D100200855A1
:10078000DDA005F08BFA03E0601CC4B2142CEBDB97
:1007900000BFDBA1284604F06DFECE490860084684
:1007A0000068B0B1002411E0601DCA490968085C06
:1007B000D54908550846005D2C2805D1002008556C
:1007C000D2A005F06BFA03E0601CC4B2142CEBDB82
:1007D00000BFD0A1284604F04DFEBE49086008467F
:1007E0000068B8B1002412E0601DBA490968085CCD
:1007F000CA4908550846005D2C2806D10020085536
:10080000C7A005F04BFA04E042E1601CC4B2142C0E
:10081000EADB00BFC4A1284604F02CFEAD49086005
:1008200008460068B0B1002411E0601DA9490968BC
:10083000085CBF4908550846005D7D2805D10020A9
:100840000855BCA005F02AFA03E0601CC4B2142CC1
:10085000EBDB00BFB9A1284604F00CFE9D490860FF
:100860000846006880B1084600688079302803D1C6
:10087000B4A005F013FA07E09648006880793128A3
:1008800002D1B3A005F00AFAB4A1284604F0F2FDA3
:10089000904908600846006880B108460068807981
:1008A000302803D1AFA005F0F9F907E089480068C6
:1008B0008079312802D1AEA005F0F0F9AFA1284629
:1008C00004F0D8FD834908600846006880B10846F6
:1008D00000688079302803D1AAA005F0DFF907E08D
:1008E0007C4800688079312802D1AAA005F0D6F9A9
:1008F000ACA1284604F0BEFD7649086008460068B1
:1009000010B3084600688079302810D1A7A005F000
:10091000C5F94FF4FA7002F02FFD4FF40041A648DC
:1009200003F0A6F94FF4FA7002F026FD0CE06948D6
:1009300000688079312807D1A0A005F0AFF94FF405
:1009400000419D4803F092F99FA1284604F092FDD2
:10095000604908600846006810B30846006880795E
:10096000302810D19AA005F099F94FF4FA7002F0EE
:1009700003FD4FF48041904803F07AF94FF4FA7088
:1009800002F0FAFC0CE0534800688079312807D166
:1009900092A005F083F94FF48041874803F066F98F
:1009A00091A1284604F066FD4A490860084600689F
:1009B000B0B108460068007A302806D18DA005F055
:1009C0006DF900208F4908700AE042480068007AFB
:1009D000312805D18CA005F061F901208949087002
:1009E0008DA1284604F046FD3A4908600846006893
:1009F00010B308460068C079302810D188A005F0EF
:100A00004DF94FF4FA7002F0B7FC4FF480516A4888
:100A100003F02EF94FF4FA7002F0AEFC0CE02D4812
:100A20000068C079312807D180A005F037F94FF46C
:100A30008051614803F01AF97FA1284604F01AFD9D
:100A4000244908600846006810B3084600684079E9
:100A5000302810D17AA005F021F94FF4FA7002F095
:100A60008BFC4FF40051544803F002F94FF4FA7034
:100A700002F082FC0CE0174800684079312807D169
:100A800073A005F00BF94FF400514B4803F0EEF85A
:100A900070BD00006275737920702E2E2E0000004C
:100AA00018000020657370207265737461727400A1
:100AB0004552524F520000001C0000207774640021
:100AC000200000202B4D515454535542524543565B
:100AD0003A30000014000020225465223A00000041
:100AE0008802002054653A25730D0A0022417422C1
:100AF0003A000000A602002041743A25730D0A0056
:100B000022436F223A000000C4020020436F3A25BE
:100B1000730D0A00224875223A000000E20200200C
:100B200048753A25730D0A00224C69223A000000EC
:100B3000000300204C693A25730D0A007B22706681
:100B4000223A00007066D7B4CCAC300D0A00000029
:100B50007066D7B4CCAC310D0A0000007B227466FD
:100B6000223A00007466D7B4CCAC300D0A00000005
:100B70007466D7B4CCAC310D0A0000007B226166EC
:100B8000223A0000D7DCBFAAB9D8D7B4CCAC300D1C
:100B90000A000000D7DCBFAAB9D8D7B4CCAC310D5D
:100BA0000A0000007B226766223A0000B5C6D7B46F
:100BB000CCAC300D0A000000000C0240B5C6D7B422
:100BC000CCAC310D0A0000007B227966223A00008D
:100BD000D5DAD1F4D7B4CCAC300D0A00D5DAD1F4E3
:100BE000D7B4CCAC310D0A007B227A646B7A223AFE
:100BF00000000000D7D4B6AFBFD8D6C6D7B4CCACAF
:100C0000300D0A0024000020D7D4B6AFBFD8D6C616
:100C1000D7B4CCAC310D0A007B22676766223A005C
:100C2000B9E0B8C8D7B4CCAC300D0A00B9E0B8C848
:100C3000D7B4CCAC310D0A007B2266223A0000000A
:100C4000C5C5C6F8C9C8D7B4CCAC300D0A00000081
:100C5000C5C5C6F8C9C8D7B4CCAC310D0A00000070
:100C6000002004E00021F74A1154411C88B2B0F57D
:100C7000006FF7DB0020F4490880F44908707047E2
:100C800010B5F2480078012814D1EF4800883228C6
:100C900010DD962002F070FBEDA004F0FFFFE948A4
:100CA000FFF700FDF0A004F0F9FFFFF7D9FFF2A075
:100CB00004F0F4FF10BD0146084642293ED00EDC88
:100CC000A0F1300012284FD2DFE800F022242628BD
:100CD0002A2C2E3032344E4E4E4E4E4E4E36622818
:100CE00038D00CDC45282FD004DC432828D04428F9
:100CF0003AD127E0462829D0612835D128E0632859
:100D00002AD064282AD065282AD066282CD129E048
:100D1000002070470120FCE70220FAE70320F8E7F3
:100D20000420F6E70520F4E70620F2E70720F0E7C5
:100D30000820EEE70920ECE70A20EAE70B20E8E7C5
:100D40000C20E6E70D20E4E70E20E2E70F20E0E7C5
:100D50000A20DEE70B20DCE70C20DAE70D20D8E7DD
:100D60000E20D6E70F20D4E74020D2E710B5C648C2
:100D700004F092FB1E280EDDC4480068401CC349E5
:100D8000086008460068642805D142F2CF0142F2AB
:100D9000107002F017F8BE480068012817D1BA4851
:100DA00004F07AFB1A2812DABA480068401CB949E4
:100DB000086008460068642809D14FF40051B6481D
:100DC00002F056FF0020B2490860B2490860B348FB
:100DD00004F062FB00EE100AB8EEC00AB048D0ED95
:100DE000000AB4EEE00AF1EE10FA04DDAD48006846
:100DF000401CAC490860AB48006864280CD1002056
:100E0000A84908604FF48041A34802F02FFF4FF437
:100E10000041A14802F02CFFA04804F03DFB7828D7
:100E200024DA9E4804F038FB00EE100AB8EEC00A3F
:100E30009B48D0ED000AB4EEE00AF1EE10FA15D2AC
:100E400099480068401C9849086008460068642872
:100E50000CD14FF48041904802F00AFF4FF400415A
:100E60008D4802F003FF00208F4908608F4890ED05
:100E7000000AF3EE0E0AB4EEE00AF1EE10FA26D202
:100E800090ED000AF3EE090AB4EEE00AF1EE10FA72
:100E90001DDD874890ED000ADFED860AB4EEE00A1A
:100EA000F1EE10FA13DD84480068401C82490860A6
:100EB0000846006864280AD14FF40051764802F0D1
:100EC000D5FE42F2CF0142F2107001F0A7FF7B483D
:100ED00004F0E2FA142813DA79480068401C7849D3
:100EE00008600846006864280AD14FF480516A48B7
:100EF00002F0BCFE42F2CF0142F2107001F0BBFFE3
:100F000010BD10B50121880703F08BFF012813D114
:100F10006C480068401C6B49086008460068B0F5E2
:100F2000E16F09D14FF400515B4802F0A1FE0020AF
:100F300064490860604908600121880703F082FF66
:100F400010BD10B50121604803F06BFF012816D1D8
:100F50005E480068401C5D49086008460068B0F5BE
:100F6000E16F0CD14FF400514B4802F07FFE01209D
:100F7000474908600020454908605449086001213C
:100F8000514803F05FFF10BD10B50121504803F038
:100F900048FF012814D14F480068401C4D490860A3
:100FA000084600680A280BD14FF480513A4802F0F5
:100FB0005FFE0020474908604149086046490860D3
:100FC0000121434803F03EFF10BD10B5374890EDB6
:100FD000000AF3EE0B0AB4EEE00AF1EE10FA10DDAF
:100FE0003D48006868B94FF480512B4802F03EFE3E
:100FF00042F2CF0142F2107001F03DFF012036496C
:1010000008602B4890ED000ADFED340AB4EEE00AE8
:10101000F1EE10FA05DD4FF400511F4802F026FEF4
:101020000EE0234890ED000ADFED2D0AB4EEE00A51
:10103000F1EE10FA04D24FF40051174802F018FEF6
:1010400010BD0000540300207E0000207C00002022
:10105000BDD3CAD5B5BDCAFDBEDDBFAACABCB4A644
:10106000C0ED0D0A00000000CAFDBEDDB4A6C0ED53
:10107000CDEAB1CF0D0A0000C7E5BFD5BBBAB4E6D3
:10108000CDEAB1CF0D0A0000880200203800002010
:101090004C0000203C000020000C02400003002017
:1010A0006C00002030000020340000208000002070
:1010B0008400002000008C4240000020E20200205A
:1010C0004400002050000020000400405400002094
:1010D00000080040480000205C0000200000824220
:1010E000000080421CB50121082002F0E1FF4FF40E
:1010F0007040009001208DF8040000208DF806005B
:1011000003208DF8050001208DF80700694602488C
:1011100002F030FD1CBD0000000C02401CB5012196
:10112000022002F0C5FF4FF44070009001208DF8BE
:10113000040000208DF8060003208DF80500012032
:101140008DF807006946FD4802F014FD0120FC49B6
:101150000860FC49C1F8A4021CBD10B5F74800683E
:1011600020F44020F54908600846006840F48020DB
:1011700008600120F249091D0860022002F0B4F85D
:101180000120F049C1F8A002052002F0ADF80020CE
:10119000EB49091D0860042002F0A6F80020E94987
:1011A000C1F8A002022002F09FF810BD10B5E3487C
:1011B000006820F44020E14908600846006840F4D7
:1011C000802008600020DE49091D0860022002F02E
:1011D0008BF80120DB49C1F8A002052002F084F859
:1011E0000120D749091D0860042002F07DF810BDD8
:1011F00010B50024D148006820F44020CF49086091
:101200000846006808600120CD49091D08600220D9
:1012100002F06AF80120CB49C1F8A002022002F0D6
:1012200063F807E0601CC4B2FA2C03DBFFF7BEFFD3
:10123000012010BDC2487C3800680028F2D1C049A6
:10124000086000BFF5E710B50020BD490860BB4845
:10125000006820F44020B94908600846006840F45E
:10126000802008600020B749C1F8A402022002F0E3
:101270003BF80120B2490860042002F035F8002054
:10128000B049C1F8A002022002F02EF810BD10B53E
:101290000020AB490860A948006820F44020A74915
:1012A00008600846006840F4802008600120A549D5
:1012B000C1F8A402022002F017F80120A04908603A
:1012C000042002F011F800209E49C1F8A00202207B
:1012D00002F00AF810BD70B505469848006820F481
:1012E0004020964908600846006840F48020086065
:1012F00000241FE005FA04F000F0800020B1012076
:101300008F49091D086003E000208D49091D086010
:10131000022001F0E9FF012089490860042001F062
:10132000E3FF00208749C1F8A002022001F0DCFFA2
:10133000601CC4B2082CDDDB00208149086002205B
:1013400001F0D2FF70BD70B5054600247B480068EF
:1013500020F44020794908600846006808600026AB
:1013600019E0002076490860052001F0BDFF01204A
:101370007449C1F8A002022001F0B6FF6006040E15
:101380006F487C38006808B1601CC4B2022001F0CC
:10139000ABFF701CC6B2082EE3DB15B9FFF777FF71
:1013A00001E0FFF750FF204670BD10B50446FFF77F
:1013B000D4FE4620FFF78FFF2046FFF78CFFFFF794
:1013C000F5FE10BD10B5FFF7A9FE0120FFF7EDFFF8
:1013D00010BD10B5FFF7C1FE4620FFF77CFFFFF7F9
:1013E00007FF2020FFF777FFFFF702FFFFF7DEFE82
:1013F000C82001F0C1FFFFF7B0FE4720FFF76BFFE9
:10140000FFF7F6FE0120FFF79EFF4F49087000200E
:10141000FFF799FF4C494870FFF7C8FE10BD70B543
:1014200000240025FFF799FE4620FFF754FFFFF741
:10143000DFFE1020FFF74FFFFFF7DAFEFFF7B6FEE3
:10144000C82001F099FFFFF788FE4720FFF743FF10
:10145000FFF7CEFE0120FFF776FF04460020FFF7DE
:1014600072FF0546FFF7A2FE05EB0420374908800E
:101470000846008800EE100AB8EE400ADFED340A94
:1014800080EE201A334880ED001A70BD10B5FFF7CA
:1014900064FE4620FFF71FFFFFF7AAFE1020FFF7AC
:1014A0001AFFFFF7A5FEFFF781FEC82001F064FFD9
:1014B000FFF753FE4720FFF70EFFFFF799FE0120CD
:1014C000FFF741FF204908700020FFF73CFF1E494D
:1014D0004870FFF76BFE10BD10B5FFF73EFE4720CA
:1014E000FFF7F9FE0120FFF72EFF174908700020D3
:1014F000FFF729FF14494870FFF758FE052001F057
:10150000F3FEC82001F038FF10BD0F4800780F49E6
:1015100008800D484078097800EB01200B490880CD
:101520000846008800EE100AB8EE400ADFED080A0F
:1015300080EE201A074880ED001A70470004024030
:10154000A0824042008040426000002068000020ED
:101550009A99993F6C00002010B5FFF760FF10BD0D
:1015600000B58DB00121084602F0A2FD012108025C
:1015700002F0F8FD20200B9003208DF830000020B1
:101580008DF833000BA92C4802F0F4FA012108026F
:1015900002F03DFE00214FF4807002F038FE002082
:1015A00007900A9009904FF48030089007A802F045
:1015B00063F8002001908DF808008DF80900039071
:1015C000059001208DF8180001A91C4802F025F8AB
:1015D00001211A4802F067F80DB000BD10B50446AD
:1015E000072301222146154802F09DF8134802F016
:1015F000F6F800BF0221114802F012FA0028F9D0D3
:101600000E4802F028F910BD2DE9F04107460C46BE
:101610000025002608E03846FFF7E0FF05440520D6
:1016200001F0AAFE701CC6B2A642F4DBB5FBF4F0D2
:1016300080B2BDE8F08100000000024000200140BF
:101640001CB50121202002F033FDC02000900120B4
:101650008DF8040000208DF8060003208DF80500A9
:1016600001208DF807006946C84802F083FA01207E
:10167000C7490860C749C1F89C021CBD10B5C348E2
:10168000006820F44040C14908600846006840F402
:10169000804008600120BE49091D0860BD49C1F8AD
:1016A0009802042001F020FE0020B949091D0860BD
:1016B000042001F019FE0020B649C1F8980210BDBF
:1016C00010B5B248006820F44040B04908600846B0
:1016D000006840F4804008600020AD490860AD49D2
:1016E000C1F89C02042001F0FFFD0120A849086018
:1016F000A849C1F89C02042001F0F6FD10BD10B508
:101700000024A248006820F44040A0490860084630
:101710000068086001209E49091D086001F0E4FD91
:1017200001209C49C1F8980201F0DEFD07E0601C31
:10173000C4B2FA2C03DDFFF7C3FF012010BD9448AB
:101740007C3800680028F2D19149086000BFF5E7B5
:1017500010B500208E4908608C48006820F4404095
:101760008A4908600846006840F48040086000200C
:101770008849C1F89C02022001F0B6FD012084498D
:101780000860022001F0B0FD00208249C1F89802F3
:1017900010BD10B500207E4908607C48006820F428
:1017A00040407A4908600846006840F4804008607C
:1017B00001207849C1F89C02022001F095FD01202A
:1017C00073490860022001F08FFD00207149C1F8C3
:1017D000980210BD70B504466C48006820F4404083
:1017E0006A4908600846006840F4804008600020AC
:1017F00067490860002517E0E0096549091D086090
:101800006006040E022001F06FFD01206149C1F85D
:101810009802022001F068FD00205D490860022066
:1018200001F062FD681CC5B2082DE5DB70BD70B526
:10183000054600245548006820F44040534908609C
:10184000084600680860002616E00020504908603D
:10185000022001F049FD01204E49C1F898026006BE
:10186000040E4B487C38006808B1601CC4B20120EB
:1018700001F03AFD701CC6B2082EE6DB15B9FFF781
:1018800088FF01E0FFF764FF204670BD70B5FFF7E9
:10189000F5FEB120FFF79EFFFFF731FF0120FFF7B4
:1018A000C6FF044624020120FFF7C1FF04440120C3
:1018B000FFF7BDFF054600BF24020120FFF7B7FF79
:1018C000044424020020FFF7B2FF0444FFF7F8FEAF
:1018D000204670BD70B505460C46FFF7CFFEB02020
:1018E000FFF778FFFFF70BFF2846FFF773FFFFF7BF
:1018F00006FF2046FFF76EFFFFF701FFFFF7E0FE50
:10190000642001F039FD70BD10B5FFF799FE032189
:101910002020FFF7DFFF08212020FFF7DBFFFFF784
:10192000B5FF0446200C1C490860A0B21B490860A2
:1019300013E008212020FFF7CDFFFFF7A7FF0446A3
:10194000200C15490860A0B21449086014A004F0E6
:10195000A5F94FF4FA7001F00FFD0F480068B0F5DB
:10196000C87F03D10D4800680028E2D010BD10B533
:1019700008212020FFF7AEFFFFF788FF0446200C68
:1019800005490860A0B20549086010BD0014024076
:101990009882424200804242700000207400002081
:1019A0005347503330D5FDD4DABCECB2E2D6D02E5A
:1019B0002E2E0D0A000000001CB50121082002F0A7
:1019C00077FB0320009001208DF8040000208DF8A3
:1019D000060003208DF8050001208DF807006946F8
:1019E000884802F0C7F80120874908608749C1F894
:1019F00084021CBD10B58348006820F00C008149AA
:101A000008600846006840F00400086001207E4934
:101A1000091D08607D49C1F88002042001F064FCC2
:101A200000207949091D0860042001F05DFC0020B8
:101A30007649C1F8800210BD10B57248006820F0E8
:101A40000C00704908600846006840F00400086017
:101A500000206D4908606D49C1F88402042001F03E
:101A600043FC0120684908606849C1F884020420E9
:101A700001F03AFC10BD10B500246248006820F067
:101A80000C006049086008460068086001205E4953
:101A9000091D086001F028FC01205C49C1F88002A2
:101AA00001F022FC07E0601CC4B2FA2C03DDFFF752
:101AB000C3FF012010BD54487C3800680028F2D1D3
:101AC0005149086000BFF5E710B500204E49086095
:101AD0004C48006820F00C004A490860084600683D
:101AE00040F00400086000204849C1F88402022048
:101AF00001F0FAFB012044490860022001F0F4FBE8
:101B000000204249C1F8800210BD10B500203E49B6
:101B100008603C48006820F00C003A49086008461C
:101B2000006840F00400086001203849C1F88402D0
:101B3000022001F0D9FB012033490860022001F0A6
:101B4000D3FB00203149C1F8800210BD70B50446B6
:101B50002C48006820F00C002A49086008460068FC
:101B600040F004000860002027490860002517E0C5
:101B7000E0092549091D08606006040E022001F0F5
:101B8000B3FB01202149C1F88002022001F0ACFB27
:101B900000201D490860022001F0A6FB681CC5B2A8
:101BA000082DE5DB70BD70B50546002415480068BA
:101BB00020F00C0013490860084600680860002601
:101BC00016E0002010490860022001F08DFB012082
:101BD0000E49C1F880026006040E0B487C3800688C
:101BE00008B1601CC4B2012001F07EFB701CC6B2BB
:101BF000082EE6DB15B9FFF788FF01E0FFF764FF69
:101C0000204670BD000C024080824142008041426B
:101C100070B50446FFF7EEFEEC20FFF797FFFFF7E5
:101C20002AFF2046FFF792FFFFF725FFFFF7E2FEAE
:101C3000ED20FFF78BFFFFF71EFF0020FFF7B3FF3C
:101C40000546FFF7F9FE284670BD70B505460C46FF
:101C5000FFF7D0FEEC20FFF779FFFFF70CFF2846D7
:101C6000FFF774FFFFF707FF2046FFF76FFFFFF74F
:101C700002FFFFF7E1FE70BD10B5D020FFF7C8FFEF
:101C800010BD70B5044660784001217840EA8100BB
:101C9000A1780843C5B22946F420FFF7D6FF70BDEE
:101CA00070B5044620784001617840EA8100A1784F
:101CB0000843C5B22946F520FFF7C7FF70BD7CB5C4
:101CC0008820FFF7A5FF04468920FFF7A1FF0546FE
:101CD00004EB0520FE4908808A20FFF799FF04469F
:101CE0008B20FFF795FF054604EB052000B2F8496D
:101CF00048808C20FFF78CFF04468D20FFF788FF7B
:101D0000054604EB052000B2F14988808E20FFF7DC
:101D10007FFF04468F20FFF77BFF054604EB05207D
:101D2000EB49C8809020FFF773FF04469120FFF72E
:101D30006FFF054604EB052000B2E54908819220BB
:101D4000FFF766FF04469320FFF762FF054604EBAA
:101D5000052000B2DE4948819420FFF759FF044670
:101D60009520FFF755FF054604EB052000B2D84942
:101D700088819620FFF74CFF04469720FFF748FF25
:101D8000054604EB052000B2D149C8819820FFF731
:101D90003FFF04469920FFF73BFF054604EB052073
:101DA00000B2CB4908829A20FFF732FF04469B20FD
:101DB000FFF72EFF054604EB052000B2C449488218
:101DC0009C20FFF725FF04469D20FFF721FF0546D5
:101DD00004EB052000B2BE4988829E20FFF718FF61
:101DE00004469F20FFF714FF054604EB052000B2D0
:101DF000B749C882B621E020FFF727FF03208DF8FE
:101E0000040001208DF8050003208DF8060001A8CC
:101E1000FFF737FF00208DF8000004208DF8010047
:101E200000208DF802006846FFF73AFF7CBD70B5D0
:101E30000446F320FFF7ECFE054605EA040008B16E
:101E4000012070BD0020FCE710B52DED108B84B093
:101E500004469F49B1F9020003F0B3FC41EC1A0BB0
:101E60009B49088803F0BEFC41EC1E0B9FED990BCB
:101E700053EC102B03F036FC41EC1B0B204603F017
:101E8000A0FC41EC1E0B9FED950B53EC102B03F0C7
:101E900029FC41EC1C0B53EC1B2B03F0ABFB41EC7E
:101EA0001D0B53EC1A2B03F0ABFB41EC180B8849CC
:101EB000B1F9040003F085FC41EC1A0B8449088851
:101EC00003F090FC41EC1F0B9FED860B53EC102BA5
:101ED00003F008FC41EC1D0B204603F072FC41ECC2
:101EE0001F0B9FED820B53EC102B03F0FBFB41EC1F
:101EF0001E0B53EC1D2B03F07DFB41EC1B0B7449B7
:101F0000088803F06FFC41EC1F0B9FED760B53EC40
:101F1000102B03F0E7FB41EC1D0B204603F051FCB6
:101F200041EC1F0B9FED710B53EC102B03F0DAFB10
:101F300041EC1E0B53EC1D2B03F05CFB41EC1C0B26
:101F400053EC1B2B03F05CFB53EC1A2BCDE9000187
:101F50009DED000B51EC100B03F052FB41EC190B03
:101F600053EC192B51EC180B03F0A3FA41EC1A0BAC
:101F700003F045FC5F49086053EC192B51EC180B3A
:101F800003F097FA41EC1A0B9FED5B0B53EC102B0F
:101F900003F0A8FBCDE902019DED020B04B0BDECFE
:101FA000108B10BD10B52DED108B82B0044651483A
:101FB000006803F006FC41EC1C0B9FED510B53EC49
:101FC000102B03F08FFB41EC1B0B9FED4F0B53ECE1
:101FD000102B03F00FFB41EC180B3D49B1F9100039
:101FE00003F0EFFB41EC1C0B53EC182B51EC180BDE
:101FF00003F006FB41EC1D0B53EC1C2B03F000FB24
:1020000041EC1B0B9FED420B53EC102B03F06AFBD2
:1020100041EC1A0B2E49B1F90E0003F0D2FB41EC52
:102020001D0B53EC182B03F0EBFA41EC1C0B9FED4E
:10203000340B53EC102B03F0E3FA41EC1B0B53EC85
:102040001A2B03F036FA41EC1A0B2149B1F90C00B6
:1020500003F0B7FB41EC1D0B9FED2F0B53EC102B46
:1020600003F0CEFA41EC1B0B9FED2D0B53EC102B24
:1020700051EC1A0B03F036FB41EC1C0B53EC1B2B01
:1020800003F017FA41EC1A0B1149B1F9080003F0FB
:1020900098FB41EC1E0B53EC182B03F0B1FA41EC0A
:1020A0001C0B0B49B1F90A0003F08BFB41EC1F0B31
:1020B00053EC182B03F0A4FA41EC1E0B53EC182B35
:1020C00003F09EFA9FED180B53EC102B30E000004C
:1020D0003C030020000000000000904000000000D1
:1020E0000000D040000000000000C04000000000E0
:1020F0000000004178000020000000000000B44013
:102100000000000000000040000000000040EF4020
:10211000000000000000E040000000000000F0406F
:1021200000000000000010400000000000002041FE
:10213000CDE900019DED000B51EC100B03F0D2FA3C
:1021400041EC1D0B53EC1C2B03F0B3F941EC1B0BC2
:102150001FED0B0B53EC102B03F0C4FA41EC180BE2
:102160007B49C88803F03EFB41EC1B0B1FED180BAD
:1021700053EC102B51EC180B03F0B4FA41EC1D0B8F
:102180009FED740B53EC102B03F093F941EC1C0BF7
:1021900053EC1B2B03F034FA41EC180B9FED6F0B43
:1021A00053EC102B51EC180B03F05CFB05D19FEDA9
:1021B0006B0B02B0BDEC108B10BD204603F001FB91
:1021C00041EC1B0B9FED670B53EC102B03F015FA42
:1021D00041EC190B9FED650B53EC102B51EC1A0BD6
:1021E00003F080FA41EC1D0B53EC192B03F005FAB8
:1021F00041EC1C0B9FED5F0B53EC102B03F000FA2E
:1022000041EC1B0B53EC182B03F06CFA41EC190B4F
:102210004F49B1F9160003F0D4FA41EC1D0B53EC11
:10222000192B03F0EDF941EC1C0B53EC192B03F0C7
:10223000E7F941EC1B0B9FED510B53EC102B03F016
:1022400051FA41EC180B4249B1F9140003F0B9FA04
:1022500041EC1C0B53EC192B03F0D2F941EC1B0B96
:102260001FED550B53EC102B03F03CFA41EC1A0B0D
:102270003749B1F9120003F0A4FA41EC1D0B53ECFD
:102280001A2B51EC180B03F014F941EC1E0B53EC14
:102290001D2B03F00EF941EC1C0B9FED3A0B53EC98
:1022A000102B03F01FFA41EC1B0B53EC192B03F01E
:1022B00000F941EC190BB0EE490AF0EE690A78E733
:1022C0002DE9F0412DED028BF920FFF7A1FC04462A
:1022D000F820FFF79DFC0546F720FFF799FC06461E
:1022E000300340EA051040EA24173846FFF75AFE4B
:1022F000B0EE408AF0EE608AB0EE480AF0EE680A6E
:10230000BDEC028BBDE8F0812DE9F0412DED028B93
:10231000FC20FFF77DFC0446FB20FFF779FC054617
:10232000FA20FFF775FC0646300340EA051040EA44
:1023300024173846FFF788FDB0EE408AF0EE608A39
:10234000B0EE480AF0EE680ABDEC028BBDE8F08101
:102350003C030020000000000000F03F00000000EF
:1023600000000000000000000000304100000000FC
:102370000000B04000000000006AB840000000000B
:102380000000E041000000000000304010B588B0BF
:1023900004460121084601F08BFE0121480401F0AA
:1023A000D0FE07220221FA4801F06FFC0722032128
:1023B000F74801F06AFC0C20069002208DF81C0002
:1023C0008DF81D0000208DF81E0001208DF81F00E3
:1023D00006A9EF4801F0CEFB02940020ADF80C00F6
:1023E000ADF80E00ADF81000ADF814000C20ADF8FB
:1023F000120002A9E74802F068FE0121E54802F058
:10240000ECFE012240F22551E24802F09CFF01223D
:1024100040F22441DF4802F096FF26208DF80400A8
:1024200003208DF805008DF8060001208DF80700C7
:1024300001A801F07CF808B010BD10B540F225519C
:10244000D44802F0BBFF38B3D24802F0F5FEC4B264
:10245000D148B0F80004C0F30E0040F2FF318842CA
:102460001ADACD49B1F80014C1F30E00411CCA4A72
:10247000B2F8002461F30E02C749A1F800240C54FD
:10248000C648C74909884454C5480088401CC44907
:1024900008800120C349087040F22441BD4802F081
:1024A0008DFF01280DD1BC48B0F8000420F4004095
:1024B00000F50040B849A1F80004B64802F0BCFE9F
:1024C000C4B210BD10B51021B14801F0D1FB4FF4DA
:1024D000FA7000F051FF1021AD4801F0C7FB10BDAC
:1024E0001CB504460121084601F0E2FD10200090D1
:1024F00001208DF8040000208DF8060002208DF8E0
:10250000050001208DF807006946A14801F032FB63
:102510002020009069469E4801F02CFB2046FFF7E2
:1025200035FFFFF7CFFF1CBDF0B503460D4616463D
:10253000002729460A2E03D0002008702846F0BD47
:1025400033B9302001F8010B002008702846F6E767
:10255000002B03DA2D2001F8010B5B4242F21072CE
:102560000DE093FBF2F404B937B104F1300001F847
:10257000010B04FB123301270A2092FBF0F2002A20
:10258000EFDC002008702846D9E70FB470B586B09C
:1025900006460CA8019073E00B9800785C281CD1CB
:1025A0000B98401C0B9000786E2809D072280FD130
:1025B0000D21304602F03CFE0B98401C0B900BE0C6
:1025C0000A21304602F034FE0B98401C0B9003E0C9
:1025D0000B98401C0B9000BF4BE00B98007825280F
:1025E00040D10B98401C0B900078642818D07328B9
:1025F00033D1019810C801900BE02178304602F0E9
:1026000017FE00BF8021304602F0C2FE0028F9D03C
:10261000641C20780028F0D10B98401C0B9020E01F
:10262000019820C801900A2202A92846FFF77CFFE2
:1026300002AC0BE02178304602F0FAFD00BF8021A9
:10264000304602F0A5FE0028F9D0641C207800284E
:10265000F0D10B98401C0B9003E00B98401C0B90A2
:1026600000BF06E00B9810F8011B0B90304602F0FB
:10267000DFFD00BF8021304602F08AFE0028F9D03D
:102680000B980078002887D106B070BC5DF814FB69
:102690002DE9F04106460C4615461F463E48B0F867
:1026A00000046FF30E003C49A1F8000432463EA13D
:1026B0003848FFF76AFF1CB915B90120BDE8F08161
:1026C000B8B200F059FE4FF47A7000F055FE0020C9
:1026D0003149B1F80014C1F30E012F4A505411468C
:1026E00033A003F0DBFAB4B1ADB121462A4802F0C1
:1026F000C1FE08B1012000E0002040B9294626486B
:1027000002F0B8FE08B1012000E0002008B101206D
:10271000D4E70020D2E744B121461F4802F0AAFEC8
:1027200008B10120CAE70020C8E729461A4802F08C
:10273000A1FE08B10120C1E70020BFE710B50024C9
:102740004FF47A7000F018FE0DE04FF4FA73002297
:1027500018A119A0FFF79CFF18B11AA003F09EFA68
:1027600010BD601CC4B20A2CEFDB00BFF8E710B547
:10277000044624B1012C35D0022C47D13CE040F670
:10278000C41312A20BA114A0FFF782FF10BD00001A
:102790000000024000440040540B0020540300207D
:1027A0007E0000207C00002025730D0A0000000040
:1027B000257300004F4B000041542B524553544F9A
:1027C000524500004F4B0D0A000000006E6F206361
:1027D00068616E676500000041542B43574D4F44BC
:1027E000453D310040F6C413AFF22002AFF23C0188
:1027F000B4A0FFF74DFF10BD40F6C413AFF2340292
:10280000AFF25001B2A0FFF743FFF4E70020F2E778
:1028100030B59FB004460D462B462246AFA101A815
:1028200003F04CFA41F288330022AFF2780101A89C
:10283000FFF72EFF1FB030BD10B586B004460CB1B7
:10284000012000E000200246A9A101A803F036FA09
:102850004FF4FA730022AFF2A40101A8FFF718FFAA
:1028600006B010BDF0B5B9B006460F4614461D4679
:10287000642120A802F0F3FD16B1012E10D107E06B
:102880003B469FA29FA120A8009403F017FA08E0FE
:102890003B46A0A29BA120A8009403F00FFA00E001
:1028A00000BF00BF052D06DA20AB2A469AA102A878
:1028B00003F004FA04E020AA9CA102A803F0FEF9A8
:1028C0004FF47A639DA2AFF2141102A8FFF7E0FE65
:1028D00039B0F0BD10B54FF4FA730022AFF22C11ED
:1028E0009AA0FFF7D5FE08B9002010BD4FF4FA7387
:1028F0009AA2AFF240119AA0FFF7CAFEF5E72DE9C0
:10290000F04186B007460C4615461E464FF00008BB
:102910003FB1224688A19548FFF737FE4FF00108E6
:102920001CE0052E06DAAB1C324691A101A803F08B
:10293000C5F904E0AA1C93A101A803F0BFF94FF464
:102940007A73002293A101A8FFF7A2FE4FF47A73D5
:10295000002291A12046FFF79BFE8046404606B02C
:10296000BDE8F08110B54FF47A7000F005FD8CA140
:102970007E48FFF70AFE4FF4FA7000F0FDFC10BD30
:1029800010B54FF4FA730022AFF2D81185A0FFF70B
:102990007FFEA0B187A18A4802F06CFD08B1022039
:1029A00010BD88A1864802F065FD08B10320F7E755
:1029B00087A1834802F05EFD08B10420F0E7002003
:1029C000EEE770B5A0B004460D4616462B462246EB
:1029D00082A102A8009603F071F94FF4FA73002265
:1029E000AFF2302102A8FFF753FE20B070BD10B542
:1029F0009EB00446224684A1684603F05FF94FF476
:102A0000FA730022AFF254216846FFF741FE1EB070
:102A100010BD30B59FB004460D462B46224680A11E
:102A200001A803F04BF94FF4FA730022AFF27C21B6
:102A300001A8FFF72DFE1FB030BD10B59EB00446B3
:102A400022467DA1684603F039F94FF4FA7300225B
:102A5000AFF2A0216846FFF71BFE1EB010BD30B5D7
:102A60009FB004460D462B46224678A101A803F0EC
:102A700025F94FF47A730022AFF2C82101A8FFF7BD
:102A800007FE1FB030BD00B59FB077A101A803F0CD
:102A900015F94FF4FA730022AFF2E82101A8FFF70D
:102AA000F7FD1FB000BD70B504460D46002629464F
:102AB0002046FFF7D4FF4FF47A7000F05DFC01264A
:102AC000304670BD41542B43574D4F44453D320075
:102AD00041542B43574D4F44453D330041542B4304
:102AE000574A41503D222573222C22257322000093
:102AF00041542B4349504D55583D2564000000007A
:102B000054435000222573222C222573222C257336
:102B1000000000005544500041542B434950535489
:102B20004152543D25642C257300000041542B4331
:102B3000495053544152543D25730000414C524575
:102B4000415920434F4E4E454354000041542B43BE
:102B500049504D4F44453D31000000003E0000000B
:102B600041542B43495053454E440000004400401B
:102B700041542B43495053454E443D25642C256414
:102B80000000000041542B43495053454E443D251D
:102B9000640000003E20000053454E44204F4B008F
:102BA0002B2B2B0041542B43495053544154555324
:102BB000000000005354415455533A320D0A0000AE
:102BC000540B00205354415455533A330D0A00001E
:102BD0005354415455533A340D0A000041542B4D7F
:102BE000515454555345524346473D302C312C22C5
:102BF0002573222C222573222C222573222C302C83
:102C0000302C22220000000041542B4D51545443DB
:102C10004C49454E5449443D302C22257322000036
:102C200041542B4D515454434F4E4E3D302C222590
:102C300073222C25642C310041542B4D5154545394
:102C400055423D302C222573222C310041542B4D0E
:102C50005154545055423D302C222573222C2225AC
:102C600073222C312C30000041542B4D51545443CD
:102C70004C45414E3D30000010B519A003F00EF850
:102C8000FFF75CFD0220FFF772FD40F6C41300223F
:102C900019A11AA0FFF7FCFC00BF21A123A0FFF798
:102CA000B7FD0028F9D0234A23A128A0FFF789FE09
:102CB0004FF4FA73002210A12648FFF7E9FC41F215
:102CC000883300220CA12448FFF7E2FC23A0FFF781
:102CD000B4FE2FA0FFF7B1FE36A002F0DFFF10BD5B
:102CE000D5FDD4DAC5E4D6C345535038323636B2B2
:102CF000CECAFD0D0A0000004F4B000041542B438B
:102D00004950534E54504346473D312C382C226E87
:102D10007470312E616C6979756E2E636F6D22004F
:102D20003831333036363135000000007465737445
:102D300061000000306A00086D7174745F66782667
:102D400068676171416A444C676657004E554C4C48
:102D50000000000080690008E86900082F7379739B
:102D60002F68676171416A444C6766572F6D7174B3
:102D7000745F66782F7468696E672F736572766901
:102D800063652F70726F70657274792F736574004C
:102D90002F7379732F68676171416A444C67665776
:102DA0002F6D7174745F66782F2F757365722F673E
:102DB000657400000D0A4D515454C5E4D6C3CDEAE4
:102DC000B3C900007FB505460C460121022001F081
:102DD000B8F90295ADF804400020ADF80600ADF852
:102DE0000C0001A93A4801F064FB01221146384861
:102DF00002F000F80121364801F0E4FB1D208DF8B7
:102E0000000001208DF8010003208DF80200012050
:102E10008DF80300684600F08AFB7FBD7FB505464C
:102E20000C460121084601F08CF90295ADF80440EA
:102E30000020ADF80600ADF80C0001A94FF080406D
:102E400001F037FB01221146900701F0D3FF012169
:102E5000880701F0B7FB1C208DF8000001208DF8D9
:102E6000010003208DF8020001208DF80300684660
:102E700000F05DFB7FBD7FB505460C4601210420B7
:102E800001F05FF90295ADF804400020ADF80600AE
:102E9000ADF80C0001A90F4801F00BFB012211460F
:102EA0000C4801F0A7FF01210A4801F08BFB1E200E
:102EB0008DF8000001208DF8010003208DF802003C
:102EC00001208DF80300684600F031FB7FBD000053
:102ED00000040040000800401CB50121022001F060
:102EE000E7F8C020009001208DF8040000208DF844
:102EF000060003208DF8050001208DF807006946C3
:102F0000E34800F037FE0120E2490860E249C1F8D9
:102F10009C021CBD10B5DE48006820F44040DC492E
:102F200008600846006840F4804008600020D949E5
:102F30000860022000F0D8F90020D749C1F89C02AF
:102F4000022000F0D1F90120D2490860022000F0EF
:102F5000CBF90020D049C1F89802012000F0C4F953
:102F600010BD10B5CA48006820F44040C849086048
:102F70000846006840F4804008600020C5490860A9
:102F8000022000F0B1F90120C349C1F89C020220DF
:102F900000F0AAF90120BF490860022000F0A4F95E
:102FA0000020BD49C1F89802012000F09DF910BD34
:102FB00010B5C824B648006820F44040B449086001
:102FC0000846006840F4804008600120B149091DAE
:102FD000086000F089F90020AF49C1F8980201208B
:102FE00000F082F9AA48006820F44040A84908602F
:102FF000084600680860012000F076F90DE0601EC8
:10300000C4B2012000F070F924B90020A149086081
:10301000012010BD012000F067F99E487C3800684F
:103020000028ECD1012000F05FF9012099490860E7
:1030300000F05AF900209849C1F89802012000F0E8
:1030400053F90020E5E710B59148006820F44040AE
:103050008F4908600846006840F4804008600120FD
:103060008C49091D08608C49C1F89802042000F0C1
:103070003BF900208749091D0860042000F034F95D
:1030800000208549C1F8980210BD10B5804800683D
:1030900020F440407E4908600846006840F48040C3
:1030A000086000207B4908607B49C1F89C0204202D
:1030B00000F01AF9012077490860042000F014F9A3
:1030C00001207549C1F89C02042000F00DF910BDE3
:1030D00070B504466E48006820F440406C490860B2
:1030E0000846006840F48040086000206949086094
:1030F00000251FE004F0800020B101206549091D72
:10310000086003E000206349091D08606006040EA2
:10311000022000F0E9F801205E490860022000F07A
:10312000E3F800205C49C1F89802022000F0DCF8C6
:10313000681CC5B2082DDDDB70BD70B50024544895
:10314000006820F440405249086008460068086062
:10315000012000F0C9F8002516E000204D49086064
:10316000022000F0C1F801204B49C1F89802600626
:10317000040E48487C38006808B144F0010401207E
:1031800000F0B2F8681CC5B2082DE6DB002041490A
:103190000860204670BDFEB50446FFF754FF0021CD
:1031A00041EA4401C8B2FFF793FFFFF701FF2C206B
:1031B000FFF78EFFFFF7FCFE0620FFF789FFFFF702
:1031C000F7FEFFF762FF322000F0D6F8FFF73BFF73
:1031D000012101EB4401C8B2FFF77AFFFFF7E8FED7
:1031E00028BBFFF7AAFFADF80000FFF793FEFFF73B
:1031F000A4FFADF80200FFF78DFEFFF79EFFADF8CC
:103200000400FFF787FEFFF798FFADF80600FFF711
:1032100081FEFFF792FFADF80800FFF77BFEFFF796
:103220008CFFADF80A00FFF79CFEFFF72EFFBDF8FC
:103230000200BDF8001040EA012085B2BDF8080088
:10324000BDF8061040EA012086B200EE105AB8EE32
:10325000400ADFED120A60EE200A9FED111A80EE9F
:10326000810ADFED100A30EE600A0F4880ED000A97
:1032700000EE106AB8EE400ADFED0C0A20EE200ADC
:10328000DFED070A80EE201A094880ED001AFEBD26
:1032900000040240988240420080404200002F43D8
:1032A00000FF7F4700003442800000200000C84239
:1032B0008400002010B504466FF0040000F084F98B
:1032C000E11704EB5171C1F3C701394A117010467F
:1032D000007800EB4001C1EBC0104FF6FF7101EA2E
:1032E000C0003449088010BD0146314A12784A4373
:1032F0004FF0E0235A6100229A611A46126942F0A7
:1033000001021A6100BF4FF0E022106900F00102D3
:103310001AB100F48032002AF5D04FF0E022126991
:1033200022F001024FF0E0231A6100229A617047F7
:103330000146204A12884A434FF0E0235A61002296
:103340009A611A46126942F001021A6100BF4FF0F9
:10335000E022106900F001021AB100F48032002A64
:10336000F5D04FF0E022126922F001024FF0E02385
:103370001A6100229A61704770B504464FF40770D5
:1033800094FBF0F0C6B24FF4077094FBF0F100FB31
:10339000114085B205E04FF40770FFF7C9FF701EBA
:1033A000C6B2002EF7D115B12846FFF7C1FF70BD98
:1033B000880000208A00002000BF704700BF4C4AF0
:1033C000128802F04002002AF9D0C2B2484B9A801B
:1033D000704710B588B004460121084600F068FE29
:1033E0000121102000F0BEFE07220921414800F013
:1033F0004CFC07220A213F4800F047FC4FF4C06014
:10340000069002208DF81C008DF81D0000208DF81C
:103410001E0001208DF81F0006A9364800F0AAFB07
:1034200002940020ADF80C00ADF80E00ADF81000CD
:10343000ADF814000C20ADF8120002A92C4801F0E0
:1034400044FE01212A4801F0C8FE012240F2255124
:10345000274801F078FF25208DF8040003208DF81F
:1034600005008DF8060001208DF8070001A800F086
:103470005EF808B010BD10B540F225511C4801F0AF
:103480009DFF10B31A4801F0D7FEC4B21A48008855
:1034900000F40040C8B91848008800F4804060B1CA
:1034A0000A2C03D000201449088020E0124800882C
:1034B00040F400401049088019E00D2C06D10E4858
:1034C000008840F480400C49088010E00A480088D9
:1034D000C0F30D0009490C5407480088401C0649F8
:1034E000088008460088C72801DD0020088010BD3C
:1034F000001001400000024090000020560F002004
:103500000648804706480047FEE7FEE7FEE7FEE77D
:10351000FEE7FEE7FEE7FEE7FEE7FEE771050008CF
:103520008901000832490143324A1160704770B581
:10353000002100230F22C4781CB32E4C246804F40D
:10354000E064C4F5E064C4F30721C1F10404E3B20C
:103550000A4144789C40E1B28478144021430C072E
:10356000210E254C05786155047804F01F050124CF
:10357000AC4005786D11AD0005F1E025C5F80041BE
:1035800009E0047804F01F050124AC401B4D0678C7
:10359000761145F8264070BD194A0A400243154B82
:1035A0001B1F1A60704739B1124A121D126802437C
:1035B000104B1B1D1A6006E00E4A121D1268824352
:1035C0000C4B1B1D1A607047042808D14FF0E021F6
:1035D000096941F004014FF0E022116107E04FF06A
:1035E000E021096921F004014FF0E02211617047E8
:1035F0000000FA050CED00E000E400E080E100E0EE
:1036000080FFFF1F10B50121080200F000FE00211D
:103610004FF4807000F0FBFD10BD30B50246002075
:1036200000235068F84C20400D790C6844EA0524CA
:10363000204350609068F54C2040D1E903542C435E
:103640008D682C434D7944EA450420439060D06A4C
:1036500020F470000C7D641EE4B2234340EA035062
:10366000D06230BD00210160017141718160C16093
:1036700001610121017570470021E54A1168E54AA1
:103680001140D0E900231A4383681A43C3681A43E0
:103690001143E14AC2F80413704700210160416000
:1036A0008160C160704721B1826842F0010282608E
:1036B00003E0826822F00102826070470A4600211E
:1036C0004168D64B194011434160704741628262A4
:1036D00070470A460021416821F01F0111434160F3
:1036E000704738B1CA49096841F40001CA4AC2F8B2
:1036F000041306E0C649096821F40001C64AC2F86D
:103700000413704738B1C249096841F48001C24AC4
:10371000C2F8041306E0BE49096821F48001BE4ADC
:10372000C2F804137047F0B504460D46002000218E
:10373000092D11DDE068A5F10A0606EB460707260C
:1037400006FA07F18843A5F10A0606EB460603FAD6
:1037500006F10843E0600CE0206905EB4507072609
:1037600006FA07F1884305EB450603FA06F108431C
:103770002061072A0FDA606B561E06EB86071F26AC
:1037800006FA07F18843561E06EB860605FA06F18F
:103790000843606322E00D2A0FDA206BD61F06EB88
:1037A00086071F2606FA07F18843D61F06EB860612
:1037B00005FA06F10843206310E0E06AA2F10D0665
:1037C00006EB86071F2606FA07F18843A2F10D06CD
:1037D00006EB860605FA06F10843E062F0BD816853
:1037E00041F0804181607047014600208A6802F004
:1037F00080420AB1012000E00020704721B18268B8
:1038000042F48062826003E0826822F48062826017
:10381000704721B1826842F00202826003E0826850
:1038200022F002028260704710B50A460021002390
:10383000416821F46041531E41EA4331416010BDAB
:1038400021B1426842F40062426003E0426822F41F
:103850000062426070470146C86C80B270476C4895
:10386000001D0068704721B1826842F48072826056
:1038700003E0826822F480728260704721B182681E
:1038800042F40072826003E0826822F40072826077
:10389000704738B15E49096841F400515E4AC2F888
:1038A000041306E05A49096821F400515A4AC2F843
:1038B00004137047F0B50446154600200022002688
:1038C000092911DDE068A1F10A0707EB470C07277A
:1038D00007FA0CF29043A1F10A0707EB470703FA36
:1038E00007F21043E0600CE0206901EB410C072770
:1038F00007FA0CF2904301EB410703FA07F2104379
:103900002061A06BC0F30156EF1C06F1010CA7EB80
:103910000C0707EB870C1F2707FA0CF29043EF1CEC
:1039200006F1010CA7EB0C0707EB870701FA07F27A
:103930001043A063F0BD10B50A4600210023816B3F
:1039400021F44011531E41EA0351816310BD08B5B3
:10395000002300930090009B0B440093009B1A608F
:1039600008BD0A460021816821F47021114381605D
:1039700070470A460021816821F44011114381609B
:103980007047816841F480018160704701460020E2
:103990008A6802F480020AB1012000E0002070472A
:1039A00021B1426842F48062426003E0426822F43E
:1039B00080624260704721B1426842F480524260A6
:1039C00003E0426822F480524260704708B5024624
:1039D00000200090009201F12800009B1844009004
:1039E0000098006880B208BD10B50B460021D9B21E
:1039F000012404FA01F11AB144680C43446002E066
:103A000044688C43446010BDFFFEFFFCFDF7FFC01F
:103A100004230140E030FCFF00200140FFFD3FFF98
:103A20000246002013680B400BB1012000E000208B
:103A30007047CA430260704770B5024600200023F9
:103A400000240B12556801268E4005EA060415680D
:103A50001D4015B10CB1012000E0002070BD002216
:103A60000A12D3430360704710B504469848844255
:103A700008D10121084600F086FB0021012000F05A
:103A800082FB76E09348844208D10121022000F0B5
:103A90007AFB0021022000F076FB6AE08E48844227
:103AA00008D10121042000F06EFB0021042000F069
:103AB0006AFB5EE08948844208D10121082000F0B9
:103AC00062FB0021082000F05EFB52E08448844243
:103AD00008D10121102000F056FB0021102000F039
:103AE00052FB46E07F48844208D10121202000F0AB
:103AF0004AFB0021202000F046FB3AE07A4884424D
:103B000008D10121402000F03EFB0021402000F0C0
:103B10003AFB2EE07548844208D10121802000F054
:103B200032FB0021802000F02EFB22E0704884420E
:103B300008D10121801500F026FB0021A01500F01E
:103B400022FB16E06B48844208D10121401500F0A9
:103B50001AFB0021601500F016FB0AE0664884425B
:103B600007D10121001500F00EFB0021201500F007
:103B70000AFB10BDF0B50A4600210023002400BF57
:103B80003DE0012505FA01F3156805EA03049C42AE
:103B900034D105684F000326BE40B5430560157952
:103BA0004E00B5400668354305601579012D02D0F9
:103BB0001579022D16D185684F000326BE40B54306
:103BC000856055794E00B540866835438560456807
:103BD00001268E40B5434560456896798E40B6B261
:103BE00035434560C5684F000326BE40B543C560F8
:103BF000D5794E00B540C6683543C560491C1029CB
:103C0000BFD3F0BD4FF6FF7101600021017141711A
:103C10008171C171704708B54FF480320092009AEB
:103C20000A430092009AC261C161009AC261C269EE
:103C30000092C269009208BD0246002013690B4041
:103C40000BB1012000E0002070470146086980B2F6
:103C500070470246002053690B400BB1012000E081
:103C6000002070470146486980B270470183704761
:103C7000418370470AB1018300E04183704741618D
:103C8000704742694A4042617047F0B50023002402
:103C90004D07ED0E02FA05F3CE1000F1200555F8A0
:103CA00026504E07F70E0F26BE40B543CF1000F149
:103CB000200646F82750CE1000F1200555F8265072
:103CC00045EA0304CE1000F1200545F82640F0BD7A
:103CD000000002400004024000080240000C0240C4
:103CE000001002400014024000180240001C024074
:103CF000002002400024024000280240F9480068E9
:103D000040F00100F74908600020F64908310860DA
:103D1000F4480068F4490840F2490860F348091D76
:103D20000860F348EF4984310860F0481038091DF5
:103D30000860EC48006820F48020EA490860002010
:103D4000E8490C310860E7498C3108607047002170
:103D5000E44A921C117011460870704710B5014674
:103D60000022002300204A11012A02D1DD4C2368E1
:103D700008E0022A03D1DB4C7034236802E0D94CFE
:103D80007434236801F01F02012494401C400CB1DC
:103D9000012000E0002010BD38B500200090002474
:103DA000002500BF3120FFF7D9FF05460098401CD1
:103DB00000900098B0F5A04F01D0002DF2D0312036
:103DC000FFF7CCFF08B1012400E00024204638BDF5
:103DD00001460020C34A106820F0F80040EAC10004
:103DE00010607047C349086070470021BD4A7032B7
:103DF00011701170012802D004280AD104E00121B9
:103E0000B84A7032117005E00521B64A703211705F
:103E100000E000BF00BF7047B7490860704770B549
:103E2000049C41EA82150126C6EB530645EA064585
:103E3000054345EA0465AB4E361D356070BDAD499E
:103E400008667047820142EA0172A64B84331A6009
:103E50007047A8498866704710B5830143EA01633B
:103E600043EA02739F4C8834236010BDA149086760
:103E70007047A049C864704702460020994B083338
:103E8000186820F0EC6042EA01031843954B0833B0
:103E90001860704702460020924B0833186820F0E3
:103EA000784042EA010318438E4B0833186070478C
:103EB000014600208B4A0832106820F003000843B6
:103EC0001060704787480830006800F00C007047A9
:103ED00001460020834A0832106820F0F0000843B1
:103EE00010607047014600207E4A0832106820F4B6
:103EF000E05008431060704701460020794A0832BC
:103F0000106820F4604040EAC10010607047F0B5CE
:103F1000002100220024022500260223714F0837C9
:103F20003F6807F00C0121B1042905D0082937D1D9
:103F300005E0724F076036E0714F076033E0694F6C
:103F40003F1D3F68C7F38056664F3F1D3F6807F02F
:103F50003F036EB16A4FB7FBF3F7DFF888C10CF18E
:103F6000040CDCF800C0CCF3881C07FB0CF40CE05C
:103F7000624FB7FBF3F7DFF86CC10CF1040CDCF80F
:103F800000C0CCF3881C07FB0CF4564F3F1D3F6864
:103F9000C7F301477F1C7D00B4FBF5F7076002E023
:103FA000564F076000BF00BF4E4F08373F6807F00D
:103FB000F0010909534F7A5C0768D7404760494FC1
:103FC00008373F6807F4E051890A4E4F7A5C47682A
:103FD000D7408760434F08373F6807F46041490B7B
:103FE000484F7A5C4768D740C760F0BD002100F4B5
:103FF0004072B2F5407F0AD13A4A0832116821F482
:10400000F811414A02401143364A08321160354ADC
:1040100070321268C0F30B031A43324B70331A60CC
:104020007047354944390860704733494039086062
:10403000704736490860704701460020294A8C3293
:10404000106820F01F004A1E1043264A8C32106070
:10405000704701460020234A8C32106820F4F85043
:104060004A1E40EA02201F4A8C3210607047014607
:1040700000201C4A8C32106820F440100843106065
:10408000704701460020174A8C32106820F4400027
:1040900008431060704701460020124A8C321068B5
:1040A00020F4403008431060704719490860704799
:1040B00039B10C4A3032126802430A4B30331A606D
:1040C00006E0084A303212688243064B30331A60E9
:1040D0007047F9B1034A343212680243014B34335A
:1040E0001A601CE000380240FFFFF6EA103000249E
:1040F0000030002000004742800E47420024F400B8
:1041000000127A0092000020FFFCFF0F5C01474282
:10411000E01147428F4A126882438E4B1A60704703
:1041200039B18C4A121D126802438A4B1B1D1A605A
:1041300006E0884A121D12688243864B1B1D1A60D6
:10414000704739B1834A0C3212680243814B0C33F9
:104150001A6006E07F4A0C32126882437D4B0C33B2
:104160001A60704739B17B4A103212680243794BAA
:1041700010331A6006E0774A103212688243754B9A
:1041800010331A60704739B1724A243A12680243F8
:10419000704B243B1A6006E06E4A243A1268824350
:1041A0006C4B243B1A60704739B16A4A203A126856
:1041B0000243684B203B1A6006E0664A203A1268C8
:1041C0008243644B203B1A60704739B1614A1C3A04
:1041D000126802435F4B1C3B1A6006E05D4A1C3AC2
:1041E000126882435B4B1C3B1A60704739B1594AD5
:1041F000143A12680243574B143B1A6006E0554AC2
:10420000143A12688243534B143B1A60704739B119
:10421000504A103A126802434E4B103B1A6006E0B7
:104220004C4A103A126882434A4B103B1A6070475E
:1042300039B1484A1C3212680243464B1C331A609B
:1042400006E0444A1C3212688243424B1C331A6017
:10425000704739B13F4A2032126802433D4B203348
:104260001A6006E03B4A203212688243394B203301
:104270001A60704739B1374A243212680243354B0D
:1042800024331A6006E0334A243212688243314BE9
:1042900024331A60704739B12E4A2C321268024317
:1042A0002C4B2C331A6006E02A4A2C3212688243C7
:1042B000284B2C331A60704739B1264A30321268C5
:1042C0000243244B30331A6006E0224A303212682F
:1042D0008243204B30331A607047012808D11D49B2
:1042E0003C31096841F008011A4A3C32116007E08C
:1042F00018493C31096821F00801164A3C32116026
:10430000704739B1134A273A12780243114B273BC1
:104310001A7006E00F4A273A127882430D4B273B6A
:104320001A7070470B484030006840F080700949AF
:1043300040310860704701460020064A283A12685A
:104340000A400AB1012000E00020704701492639E7
:10435000087070473438024010B50446FE48844265
:1043600008D101210846FFF752FF00210120FFF785
:104370004EFF9DE0B4F1804F08D101210846FFF7C0
:1043800035FF00210120FFF731FF91E0F34884421F
:1043900008D101210220FFF729FF00210220FFF7A9
:1043A00025FF85E0EE48844208D101210420FFF773
:1043B0001DFF00210420FFF719FF79E0E94884423E
:1043C00008D101210820FFF711FF00210820FFF785
:1043D0000DFF6DE0E448844208D101211020FFF771
:1043E00005FF00211020FFF701FF61E0DF48844254
:1043F00008D101212020FFF7F9FE00212020FFF73E
:10440000F5FE55E0DA48844208D101210220FFF789
:10441000FEFE00210220FFF7FAFE49E0D548844263
:1044200009D101210804FFF7F2FE00214FF480308A
:10443000FFF7EDFE3CE0D048844209D10121480459
:10444000FFF7E5FE00214FF40030FFF7E0FE2FE01C
:10445000CA48844209D101218804FFF7D8FE00210F
:104460004FF48020FFF7D3FE22E0C548844208D1F4
:1044700001214020FFF7BAFE00214020FFF7B6FEE1
:1044800016E0C048844208D101218020FFF7AEFE2B
:1044900000218020FFF7AAFE0AE0BB48844207D132
:1044A00001218015FFF7A2FE0021A015FFF79EFE57
:1044B00010BD00220288A84B98420ED0AC4B984207
:1044C0000BD0B0F1804F08D0A44B984205D0A44B3C
:1044D000984202D0A34B984204D14FF68F731A40F2
:1044E0004B881A43A04B984207D0A04B984204D067
:1044F0004FF6FF431A400B891A4302804B68C36290
:104500000B880385944B984202D0994B984201D175
:104510008B7A03860123838270474FF0FF3141601D
:104520000021018001814180817270470185828272
:1045300070470A46002101884FF68F7319401143D6
:104540000180704741627047C16270470146486A06
:1045500070470146088D704721B1028842F002027F
:10456000028004E002884FF6FD731A400280704713
:1045700021B1028842F00402028004E002884FF672
:10458000FB731A400280704721B1028842F080021A
:10459000028004E002884FF67F731A400280704761
:1045A00002884FF6F7731A40028002880A4302809D
:1045B000704702884FF6FF431A40028002880A4380
:1045C0000280704721B1028842F00102028004E0BB
:1045D00002884FF6FE731A400280704770B50024BF
:1045E00000220023058C4FF6FE7635400584028CB0
:1045F0008388048B4FF68F752C40B51E2C400D8898
:104600002C43751E2A408D892A434D882A43524DDA
:10461000A84202D0564DA84213D14FF6F7752A4052
:10462000CD892A434FF6FB752A408D882A434FF6E1
:10463000FF652B404FF6FF552B400D8A2B434D8ACB
:104640002B43838004838D684563028470BD70B5FD
:10465000002400220023058C4FF6EF7635400584B8
:10466000028C8388048B48F6FF752C404FF6FF457B
:104670002C400D884FF6FF7606EA05252C434FF6B1
:10468000DF752A408D8906EA05152A434D8806EA1A
:1046900005152A43304DA84202D0354DA8421DD100
:1046A0004FF67F752A40CD894FF6FF7606EA05154D
:1046B0002A434FF6BF752A408D8806EA05152A431E
:1046C0004FF6FF352B404FF2FF752B400D8A06EA5F
:1046D00085052B434D8A06EA85052B438380048399
:1046E0008D688563028470BD70B5002400220023AC
:1046F000058C4FF6FF6635400584028C8388848BD9
:104700004FF68F752C404FF6FC752C400D882C43CE
:104710004FF6FF552A408D894FF6FF7606EA0525AC
:104720002A434D8806EA05252A430B4DA84202D0AC
:104730000F4DA84238D14FF2FF752A40CD894FF670
:10474000FF7606EA05252A434FF6FF352A408D8875
:1047500006EA05252A4319E0000001400004004054
:1047600000080040000C0040001000400014004011
:104770000004014000400140004401400048014065
:1047800000180040001C0040002000404EF6FF755D
:104790002B404DF6FF752B400D8A06EA05152B437D
:1047A0004D8A06EA05152B43838084838D68C56393
:1047B000028470BD70B5002200230024058C4EF6E3
:1047C000FF7635400584038C8488828B48F6FF751C
:1047D0002A404FF6FF452A400D884FF6FF7606EA3D
:1047E00005252A434DF6FF752B408D8906EA0535D0
:1047F0002B434D8806EA05352B43FE4DA84202D0D7
:10480000FD4DA84208D14BF6FF752C400D8A4FF69E
:10481000FF7606EA85152C43848082838D680564C3
:10482000038470BD0021018041808180816081818D
:10483000C18101824182704770B503460020002487
:104840001846183001258D40ACB21D8CA5431D843F
:1048500009B108290AD100EB610005684FF68F768F
:10486000354005600568154305600FE00D1FC5F371
:104870004E052844056848F6FF7635400560056812
:104880004FF6FF7606EA02263543056070BD4163A8
:10489000704781637047C1637047016470470A467F
:1048A0000021018B4FF68F7319401143018370472C
:1048B0000A460021018B48F6FF7319404FF6FF733B
:1048C00003EA02231943018370470A460021818BC2
:1048D0004FF68F7319401143818370470A460021B8
:1048E000818B48F6FF7319404FF6FF7303EA0223EA
:1048F0001943818370470A460021018B4FF6F773F5
:1049000019401143018370470A460021018B4FF281
:10491000FF7319404FF6FF7303EA02231943018323
:1049200070470A460021818B4FF6F77319401143F7
:10493000818370470A460021818B4FF2FF73194033
:104940004FF6FF7303EA02231943818370470A4637
:104950000021018B4FF6FB7319401143018370470F
:104960000A460021018B4FF6FF3319404FF6FF73C3
:1049700003EA02231943018370470A460021818B11
:104980004FF6FB7319401143818370470A4600219B
:10499000818B4FF6FF3319404FF6FF7303EA022372
:1049A0001943818370470A460021018B4FF67F73BC
:1049B00019401143018370470A460021018BC1F35E
:1049C0000E014FF6FF7303EA022319430183704778
:1049D0000A460021818B4FF67F7319401143818372
:1049E00070470A460021818BC1F30E014FF6FF7319
:1049F00003EA02231943818370470A460021018C90
:104A00004FF6FD7319401143018470470A46002197
:104A1000018C4FF6F77319401143018470470A4621
:104A20000021018C4FF6DF7319404FF6FF7303EA44
:104A300002131943018470470A460021018C4FF686
:104A40007F7319404FF6FF7303EA02131943018481
:104A500070470A460021018C4FF6FF5319404FF66C
:104A6000FF7303EA02231943018470470A460021B9
:104A7000018C4FF2FF7319404FF6FF7303EA0223D4
:104A80001943018470470A460021018C4DF6FF73DB
:104A900019404FF6FF7303EA02331943018470474C
:104AA00030B5002301248C40A3B2048C9C430484C1
:104AB000048C02FA01F5ADB22C43048430BD30B54C
:104AC000002304248C40A3B2048C9C430484048CF3
:104AD00002FA01F5ADB22C43048430BD828B4FF253
:104AE000FF331A408283828B4FF6FF7303EA012360
:104AF0001A4382837047F0B50C4615460021002208
:104B00000026078C4EF6FF7C07EA0C070784818B92
:104B1000028C4FF6FF7707EA043640F6FF4739402C
:104B20004FF6FF7707EA052739434FF6FF7707EA85
:104B30000337394345F6FF773A4046F480573A4306
:104B400081830284F0BD828B4FF6F3731A40828317
:104B5000828B0A4382837047F0B50C4615460021CC
:104B600000220026078C4FF6FF6C07EA0C0707842B
:104B7000818B028C4FF6FF7707EA04264FF60C77FD
:104B800039404FF6FF7707EA03172F4339434FF2B7
:104B9000FF573A4046F480773A4381830284F0BD60
:104BA000028B4FF2FF331A400283028B4FF6FF73E2
:104BB00003EA01231A4302837047F0B50C461546F9
:104BC000002100220026078C4FF6EF7C07EA0C0735
:104BD0000784018B028C4FF6FF7707EA041640F634
:104BE000FF4739404FF6FF7707EA033739434FF65F
:104BF000FF7703E0000001400004014007EA0527B9
:104C000039434FF65F773A4046F010073A43018345
:104C10000284F0BD028B4FF6F3731A400283028BBD
:104C20000A4302837047F0B50C4615460021002266
:104C3000068C4FF6FE773E400684018B028C4FF6C1
:104C40000C7631407E1C06EA03162E4331434FF6A4
:104C5000F576324044F00106324301830284F0BD10
:104C600070B505460C46208850B92389A288618812
:104C70002846FFF7D8FFE1882846FFF7CBFF25E05D
:104C8000208804280AD12389A28861882846FFF752
:104C900094FFE1882846FFF783FF17E02088082863
:104CA0000AD12389A28861882846FFF755FFE18849
:104CB0002846FFF748FF09E02389A2886188284633
:104CC000FFF719FFE1882846FFF708FF70BD0021B4
:104CD00001804180012181800021C18001817047D4
:104CE0002DE9F04105460C4600260127608808B9E9
:104CF000022600E00026A088012801D1022700E05A
:104D000001272088A0B92389A28861882846FFF757
:104D10008AFFE1882846FFF77DFF23893A4631461E
:104D20002846FFF74AFFE1882846FFF739FF13E0DE
:104D30002389A28861882846FFF73FFFE18828463B
:104D4000FFF72EFF23893A4631462846FFF76BFFCF
:104D5000E1882846FFF75EFFBDE8F0810146486B19
:104D600070470146886B70470146C86B7047014623
:104D7000086C70470A884B881A438B881A43CB8883
:104D80001A430B891A434B891A438B891A43A0F89B
:104D9000442070470021018041808180C1800181D1
:104DA00041818181704731B1B0F8442042F4004222
:104DB000A0F8442005E0B0F84420C2F30E02A0F8A9
:104DC0004420704721B1828842F00402828004E0CE
:104DD00082884FF6FB731A408280704721B1828827
:104DE00042F00102828004E082884FF6FE731A408E
:104DF000828070471AB183890B43838102E08389E3
:104E00008B43838170478182704702460020138A5A
:104E10000B400BB1012000E000207047CA43028222
:104E2000704730B50246002000230024158A05EAA9
:104E30000103958905EA010413B10CB1012000E0DA
:104E4000002030BDCA430282704741EA0203A0F845
:104E5000483070471AB183890B43838102E083890C
:104E60008B438381704721B1828842F0080282809F
:104E700004E082884FF6F7731A40828070470189F8
:104E80004FF6F8721140018170470A4600210189EE
:104E90004FF68F73194011430181704730B50446B6
:104EA0000D4629462046FFF7F0FF208940F0070015
:104EB000208130BD2DE9F04104460D4616461F46BF
:104EC000602D06D13B46012231462046FFF775FE94
:104ED00005E03B46012231462046FFF7A4FE294665
:104EE0002046FFF7D2FF208940F007002081BDE86F
:104EF000F08130B50C4600210189C9B24FF6FF752B
:104F000005EA0325154325432943018130BD2DE9D9
:104F1000F04105460E4617469846002443463A4659
:104F200031462846FFF7E5FF2C894FF6F87004401C
:104F300044F007044FF68F70044044F070042C8155
:104F4000BDE8F081F0B504460D4616461F463B46C7
:104F5000324629462046FFF7CCFF208940F48040A6
:104F60002081F0BD82884FF68F731A40828082883C
:104F70000A438280704702894FF6F8731A40028113
:104F800002890A430281704702894FF67F731A40F3
:104F9000028102890A4302817047F0B50C4615462A
:104FA0001E460021002200230189028B038C4FF64C
:104FB000F877394021434FF6FC473A4040F2011759
:104FC0003A434FF6DD773B404FF6FF7707EA061787
:104FD0002F433B43018102830384F0BD21B18288CA
:104FE00042F08002828004E082884FF67F731A408C
:104FF00082807047A0F850107047000010B504463A
:10500000FA48844208D101211020FFF700F900215D
:105010001020FFF7FCF857E0F548844209D1012140
:105020004804FFF7E3F800214FF40030FFF7DEF803
:105030004AE0F048844209D101218804FFF7D6F8FC
:1050400000214FF48020FFF7D1F83DE0EA48844288
:1050500009D10121C804FFF7C9F800214FF400204D
:10506000FFF7C4F830E0E548844209D10121080582
:10507000FFF7BCF800214FF48010FFF7B7F823E0EA
:10508000DF48844208D101212020FFF7C0F8002129
:105090002020FFF7BCF817E0DA48844209D101214B
:1050A0008807FFF7A3F800214FF08040FFF79EF834
:1050B0000AE0D548844207D101214005FFF796F860
:1050C00000216005FFF792F810BD2DE9FF47054666
:1050D0000E460024A14600BFA046B08900B100BF23
:1050E0002C8A24F44054F08804432C82AC8941F289
:1050F0000C608443B08831890843718908430443B4
:10510000AC81AC8A24F44074B0890443AC82684614
:10511000FEF7FDFEB548854202D0B948854202D16E
:10512000DDF80C9001E0DDF80890A88900F400405B
:1051300040B109EBC90000EB091031684900B0FB30
:10514000F1F707E009EBC90000EB091031688900AD
:10515000B0FBF1F76420B7FBF0F0040120096421F3
:1051600001FB1078A88900F4004040B1322000EB28
:10517000C800B0FBF1F000F00700044308E0322063
:1051800000EB08106421B0FBF1F000F00F000443C5
:105190002C81BDE8FF874FF416510160002181800A
:1051A000C18001810C21418100218181704710B5AE
:1051B00002460020108A20F470600B884C8823433C
:1051C0008C882343CC8823431843108210BD0021D0
:1051D000018041808180C180704721B1828942F481
:1051E0000052828104E082894DF6FF731A40828169
:1051F0007047028B02F47F420283028B0A430283D0
:10520000704721B1828942F40042828103E08289A1
:10521000C2F30E028281704721B1828A42F4006299
:10522000828204E0828A4FF2FF731A4082827047C2
:10523000C1F308028280704701468888C0F30800E5
:105240007047028A4FF6F0731A400282028A0A43BC
:105250000282704721B1828942F00202828104E019
:1052600082894FF6FD731A408281704782894FF21E
:10527000FF731A40828182890A4382817047028AC1
:105280004FF6DF731A400282028A0A430282704795
:1052900021B1028A42F48042028204E0028A4BF683
:1052A000FF731A4002827047818941F001018181B8
:1052B000704721B1828A42F00802828204E0828A29
:1052C0004FF6F7731A4082827047028BD2B2028384
:1052D000028B42EA01220283704721B1828A42F0A6
:1052E0002002828204E0828A4FF6DF731A408282B3
:1052F000704721B1828A42F01002828204E0828AE1
:105300004FF6EF731A4082827047828A4FF6FB7322
:105310001A408282828A0A438282704721B1828A3D
:1053200042F00202828204E0828A4FF6FD731A4044
:10533000828270471AB1838A0B43838202E0838A98
:105340008B4383827047F0B5034600240026002576
:10535000002040F66A17B94200D100BF1846C1F3D9
:10536000421401F01F06012707FA06F5012C01D1AE
:105370000C3004E0022C01D1103000E014301AB1DE
:1053800007682F43076002E00768AF430760F0BD7E
:1053900002460020B1F5007F00D100BF13880B400A
:1053A0000BB1012000E00020704701F40072B2F55B
:1053B000007F00D100BFCA430280704770B502462B
:1053C000002400230025002040F66A16B14200D1D7
:1053D00000BFC1F3421501F01F03012606FA03F3D3
:1053E000012D13D19689334017E0000000100140D1
:1053F0000044004000480040004C00400050004085
:105400000014014000780040007C0040022D02D1D1
:10541000168A334001E0968A33400C12012606FAC0
:1054200004F41688344013B10CB1012000E00020D0
:1054300070BD10B50022002340F66A14A14200D1CD
:1054400000BF0A1201249440A3B2DC43048010BDC3
:10545000D2B201E000F8012B491EFBD270470022B6
:10546000F6E710B513460A4604461946FFF7F0FF63
:10547000204610BD30B505462A460B4612F8010BF2
:1054800013F8014B08B1A042F8D01CB1002802D09B
:105490006D1CF1E7284630BD70B5064600F022FCD1
:1054A000046805460A220021304600F087FA2C6085
:1054B00070BD2DE9FE4F804681EA0300C00F0C4607
:1054C000009021F0004123F00045B8EB0200A94113
:1054D00005D24046214690461C460B46024623F024
:1054E0000040104347D0270DC7F30A00C3F30A5109
:1054F0000290401A019040286BDAC3F3130040F485
:10550000801B0098924620B10023D2EB030A63EB84
:105510000B0B01985946C0F14002504600F01DFAAD
:1055200006460D4650465946019A00F035FA10EBF2
:1055300008006141002487EA115284EAE7731A43A4
:1055400040D0009A62B3019A012A4FEA075215DC53
:10555000001B61EB02014FF0004202EA0752CDE965
:105560000042001C41F5801132462B4600F0A4FA9F
:1055700003B0BDE8F08F40462146F9E7001B61EB20
:105580000201001C41F5801300185B412018A2F5B0
:10559000001747EB030140EAD570B6196D4111E0E1
:1055A0006D084FEA360645EAC0754FEA0752001B00
:1055B00061EB0201001C41F5801149084FEA3000FF
:1055C0000019514132462B4603B0BDE8F04F00F0C0
:1055D00064BA0098012240000023D0EB020263EB82
:1055E000E073009821464FEAE074B8EB000061EBED
:1055F0000401E9E783F000435BE781F0004158E7ED
:105600002DE9FE4F81EA030404F0004421F000413B
:1056100000944FF0000B23F0004350EA01045ED0E9
:1056200052EA03045BD0C3F30A54C1F30A552C4475
:10563000A4F2F3340194A0FB0254C1F3130141F42A
:105640008011C3F3130343F4801301FB024400FBF6
:10565000034E840A970A44EA815447EA8357A4FB1D
:10566000076802958D0A05FB07854FEA932C04FB1A
:105670000C542705029D4FEA065847EA1637B5EB4A
:1056800008056EEB070C870E920E47EA811742EA77
:105690008312A7FB0201B6EB0B0164EB00042B0D98
:1056A00043EA0C335E1844EB1C50DA465146E7FBE4
:1056B0000201C5F313044FEA0B3343EA14534FEAD4
:1056C0000432019C43EA0603A4F10C040294009CFA
:1056D000CDE900B400F0F0F903B0BDE8F08F002090
:1056E0000146F9E72DE9F04D81EA030404F0004B8F
:1056F00021F0004514464FF0000A23F0004150EA23
:10570000050220D054EA01021DD0C5F30A57024613
:10571000C5F31303C1F31300C1F30A5640F4801517
:1057200043F48013A7EB0608101BD64608F2FD3899
:1057300073EB050002D308F1010801E092185B4108
:10574000B8F1000F03DA00200146BDE8F08D00201B
:105750004FF48011064684460EE0171B73EB0507D5
:1057600005D3121B63EB050306434CEA010C490801
:105770004FEA300092185B4150EA0107EDD152EA3E
:10578000030012D082EA040083EA0501084305D031
:10579000101BAB4106D20122002306E000224FF08D
:1057A000004302E06FF0010253101AEB06004CEBCD
:1057B000085110EB0A0041EB0B01BDE8F04D00F081
:1057C0006CB90EB5C10F80EAE0700844CA07002129
:1057D00040F233438DE80E000A460B4600F06CF9A8
:1057E00003B000BD0EB540F2334102910021CDE976
:1057F00000110A460B4600F05FF903B000BD70B51A
:10580000C1F30A5201F000450024C1F3130140F234
:10581000FF3341F480119A4201DA002070BD40F25A
:1058200033439A42A2F2334203DC524200F0A4F81E
:1058300000E090402C43F1D0404270BD00F00042A7
:1058400030F000400AD0C10D01F56071C0F31600C0
:1058500042EA0151C2084007114370470020014647
:105860007047000030B5041E71F1000404DB4FF0F6
:105870000044404264EB0101141E73F1000405DB97
:105880001C464FF00043524263EB04038B4208BFB7
:10589000824230BD01F0004330B421F0004150EAB3
:1058A000010206D00A0DA2F56072C1F31301002AAD
:1058B00002DC30BC00207047440F44EAC104C10040
:1058C000E01830BC00EBC25000F0B0B830B50B4669
:1058D000014600202022012409E021FA02F59D4220
:1058E00005D303FA02F5491B04FA02F52844151EF4
:1058F000A2F10102F1DC30BD2DE9F05F0546002088
:1059000092469B4688460646814640241BE0284630
:1059100041464746224600F02FF853465A46C01AE1
:10592000914110D311461846224600F016F82D1A60
:1059300067EB01084F4622460120002100F00DF8D8
:1059400017EB00094E41201EA4F10104DFDC48469C
:1059500031462A464346BDE8F09F202A04DB203A20
:1059600000FA02F1002070479140C2F1200320FAB2
:1059700003F3194390407047202A04DB203A21FAB0
:1059800002F00021704721FA02F3D040C2F1200258
:105990009140084319467047202A06DBCB17203A6E
:1059A00041FA02F043EAE07306E041FA02F3D04024
:1059B000C2F1200291400843194670472DE9F04793
:1059C00091460F4680460446002614F8015B2DB12F
:1059D00000F002F90068405DC007F6D12B2D02D01F
:1059E0002D2D18D0641E4A463946204600F0F8F89E
:1059F00027B13968A14201D1C7F8008071054FF085
:105A000002040BD54042002803DD00F06BF904606E
:105A1000A007BDE8F08746F48066E4E70028F8DADE
:105A200000F060F904606FF00040F2E70029A8BFC1
:105A30007047401C490008BF20F00100704710B4B7
:105A4000B0FA80FC00FA0CF050EA010404BF10BC6C
:105A5000704749B1CCF1200421FA04F411FA0CF199
:105A600018BF012121430843A3EB0C01CB1D4FEAD2
:105A700000614FEA102042BF002010BC704700EBCD
:105A8000C35010440029A4BF10BC7047401C4900FB
:105A900008BF20F0010010BC704710B5141E73F150
:105AA000000408DA401C41F1000192185B411A43DE
:105AB00001D120F0010010BD2DE9F04D92469B462A
:105AC00011B1B1FA81F202E0B0FA80F220329046D0
:105AD000FFF743FF04460F4640EA0A0041EA0B0184
